:100000000C94A8000C94D0000C94D0000C94D00058
:100010000C94AB030C94D0000C94D0000C94D00042
:100020000C94D0000C94D4030C94D0000C94830353
:100030000C94D0000C94D0000C94D0000C94D00000
:100040000C94D0000C94D0000C94D0000C94D000F0
:100050000C94D00000407A10F35A00A0724E180998
:100060000010A5D4E80000E87648170000E40B541F
:10007000020000CA9A3B000000E1F50500008096EE
:100080009800000040420F000000A0860100000020
:10009000102700000000E8030000000064000000DA
:1000A00000000A00000000000100000000002C76A3
:1000B000D888DC674F0823DFC1DFAE59E1B1B796BE
:1000C000E5E3E453C63AE651997696E8E6C284261B
:1000D000EB898C9B62ED407C6FFCEFBC9C9F40F2F7
:1000E000BAA56FA5F490055A2AF75C936B6CF96773
:1000F0006DC11BFCE0E40D47FEF520E6B500D0ED38
:10010000902E0300943577050080841E080000209F
:100110004E0A000000C80C333333330F986E12833D
:100120001141EF8D2114893BE65516CFFEE6DB1811
:10013000D1844B381BF77C1D901DA4BBE4242032D6
:1001400084725E228100C9F124ECA1E53D275B04A5
:1001500011241FBECFE5D4E0DEBFCDBF11E0A0E685
:10016000B0E0E0E7F9E102C005900D92AE3BB107C7
:10017000D9F722E0AEEBB1E001C01D92AF38B20773
:10018000E1F710E0C8EAD0E004C02197FE010E9428
:100190006607C73AD107C9F70E94F8030C94B60C5A
:1001A0000C940000AC0120E030E02417350770F417
:1001B00093E892BF93E093BF08B600FEFDCF13BE55
:1001C00098B7916098BF2F5F3F4FEFCF0895AC0174
:1001D00020E030E02417350770F49BEF92BF91E0E8
:1001E00093BF08B600FEFDCF13BE98B7916098BFCD
:1001F0002F5F3F4FEFCF08951ABA83E886B908956D
:1002000090E497B997B1987F892B87B986B18064BC
:1002100086B9349BFECF89E190E00E94E70024B1CB
:1002200085B190E0982F8827820F911D0895FC01D9
:10023000608308954F925F926F927F928F929F9208
:10024000AF92BF92CF92DF92EF92FF920F931F93E4
:10025000CF93DF93CDB7DEB760970FB6F894DEBFCC
:100260000FBECDBF4A015B0110E083E190E09A83AD
:10027000898301C011E0E981FA81EE0FFF1FEE0FC3
:10028000FF1FE050FF4FC080D180E280F380A501C6
:100290009401C701B6010E94D006181654F411113A
:1002A00008C0A981BA81109729F31197BA83A9834D
:1002B000E2CFE981FA81E331F1050CF06DC08F01E5
:1002C0000F5F1F4F000F111F000F111FF801E05AA1
:1002D000FF4F80819181A281B3818D839E83AF8303
:1002E000B887A981BA81AA0FBB1FAA0FBB1FA05A4A
:1002F000BF4F8D919D910D90BC91A02D89879A87BC
:10030000AB87BC879C01AD016D817E818F81988513
:100310000E94630569837A838B839C83F801E05094
:10032000FF4F4080518062807380A7019601C30116
:10033000B2010E9463056D877E878F87988B9B0132
:10034000AC0169817A818B819C810E94D00569838F
:100350007A838B839C83A301920169857A858B853F
:100360009C850E94D5062B013C012D813E814F8149
:100370005885C701B6010E94D5069B01AC01C30197
:10038000B2010E9463052D853E854F8558890E94E4
:10039000D0056B017C016CC0E981FA81EE0FFF1F73
:1003A000EE0FFF1FE05AFF4F408051806280738044
:1003B000E981FA813197EE0FFF1FEE0FFF1FFA87D9
:1003C000E987E05AFF4F80819181A281B3818D83BB
:1003D0009E83AF83B8879C01AD01C301B2010E9427
:1003E000630569837A838B839C83A985BA85A05032
:1003F000BF4F8D919D910D90BC91A02D89879A87BB
:10040000AB87BC879C01AD01C701B6010E946305A3
:100410006D877E878F87988B9B01AC0169817A817C
:100420008B819C810E94D00569837A838B839C8316
:100430002D813E814F815885C701B6010E94D506A6
:100440006B017C0129853A854B855C85C301B2012E
:100450000E94D5069B01AC01C701B6010E9463054D
:100460002D853E854F8558890E94D0056B017C0102
:10047000A501940169817A818B819C810E94D506B6
:100480009B01AC01C701B6010E94640560960FB6DE
:10049000F894DEBF0FBECDBFDF91CF911F910F91BA
:1004A000FF90EF90DF90CF90BF90AF909F908F9094
:1004B0007F906F905F904F900895CF93DF93EC0102
:1004C00088810E9400019A838983BC01990F880B5F
:1004D000990B0E94440620E030E040EA50E40E947C
:1004E000D50620E030EC4FE754E40E94D0056B8342
:1004F0007C838D839E83DF91CF9108950F931F930B
:10050000CF93DF93EC011F82188619861A864B81E0
:100510005C816D817E810E941A016F837887898753
:100520009A878E01055F1F4F22E046E00E946C070C
:10053000DF91CF911F910F91089510BC93E399B96A
:1005400098E19AB99EE890BD813019F48AB180682B
:100550008AB9613019F48AB180628AB908955D9BC5
:10056000FECF8CB908950F931F93CF93DF938C0127
:10057000C0E0D0E0F801EC0FFD1F8081882321F05E
:100580000E94AF022196F6CFDF91CF911F910F917C
:10059000089584B3836084BB0895813069F028F0A6
:1005A000823089F08330B1F0089585B38E7F85BBAA
:1005B00085B38D7F85BB089585B3816085BB85B389
:1005C0008D7F85BB089585B38E7F85BB85B38260A3
:1005D00085BB089585B3816085BB85B3826085BB8B
:1005E0000895019719F56F3F7F4F01F560E089E2AB
:1005F00092E00E94170161E084E192E00E941701FD
:1006000062E08FEF91E00E94170163E08AEE91E0D3
:100610000E94170142E063E084ED91E00E94B7047C
:1006200044E065E08EEB91E00E94B704089584B346
:10063000806884BB089589B7806489BF84E884BDDD
:1006400083E085BD0895CF9320E030E02634310566
:100650003CF4F901EF5BFD4F10822F5F3F4FF6CF67
:10066000823039F0833041F0813049F0C0E090E0D1
:1006700008C0C1E090E005C0C1E091E002C0C0E068
:1006800091E0EAEEF1E0A181B281EFEFF1E061816A
:100690007281E4E1F2E041815281E9E2F2E02181FC
:1006A00032811F928AE08F931F92CF931F929F9364
:1006B0008AEC91E09F938F9380EE91E09F938F93CC
:1006C000BF93AF937F936F935F934F933F932F931A
:1006D00080EA91E09F938F931F9286E48F9381E449
:1006E00092E09F938F930E948C0781E492E00E9496
:1006F000B3028DB79EB748960FB6F8949EBF0FBE53
:100700008DBFCF9108951F920F920FB60F921124B3
:100710008F939F938CB190913E02913059F4813325
:1007200021F481E0809387020FC0803369F4109236
:1007300087020AC0803421F481E080933E0204C025
:10074000833211F410923E029F918F910F900FBE51
:100750000F901F9018951F920F920FB60F921124B1
:100760002F938F939F938091880290918902019695
:10077000909389028093880283E884BD80918802E7
:1007800090918902843F914038F095B385B380956C
:1007900080789F77892B85BB9F918F912F910F90A8
:1007A0000FBE0F901F9018951F920F920FB60F92C9
:1007B00011242F933F934F935F936F937F938F9366
:1007C0009F93AF93BF93EF93FF930E949B04FF917E
:1007D000EF91BF91AF919F918F917F916F915F91B9
:1007E0004F913F912F910F900FBE0F901F90189532
:1007F0008FEF84BB0E941703109287021092400271
:1008000010923F0210923E0260E081E00E949D0241
:100810000E94C902809187020E94CD020E94FC00C2
:1008200084ED91E00E94BB048EEB91E00E94BB043A
:1008300078940E941B0389E292E00E945D0284E1A9
:1008400092E00E945D028FEF91E00E945D028AEECD
:1008500091E00E945D0289E292E00E947E0284E1C2
:1008600092E00E947E028FEF91E00E947E028AEE6B
:1008700091E00E947E0284ED91E00E94E90482E30F
:1008800090E00E94D2008EEB91E00E94E9048091FA
:1008900087020E94CD028091880290918902843F54
:1008A000914048F21092890210928802809187024A
:1008B0000E942303C0CF6FEF7FEF81E090E00E94A2
:1008C000F1020895CF92DF92EF92FF92CF93DF93E0
:1008D000EA010E94420620E030E040E853E40E9432
:1008E000D5066B017C01BE0180E090E00E944206CB
:1008F000A70196010E94640520E030E040E05EE33D
:100900000E94D50620E030E040E05FE30E94D5067B
:1009100020E03CEF45E057E40E94D50620E034E2B9
:1009200044E759E40E94D005DF91CF91FF90EF900A
:10093000DF90CF90089580918B0290918C02A091CE
:100940008D02B0918E020196A11DB11D80938B0284
:1009500090938C02A0938D02B0938E028E3E9240B3
:10096000A105B10518F081E080938A020895FC0189
:10097000608341830895FC0147B321E030E0C90161
:10098000008002C0880F991F0A94E2F7842B87BB6E
:1009900047B3C901018002C0880F991F0A94E2F78A
:1009A000842B87BB98B3A901018002C0440F551F57
:1009B0000A94E2F7842F8095892388BB87B301804E
:1009C00002C0220F331F0A94E2F72095282327BB89
:1009D00008950F931F93CF93DF93EC011F821E8224
:1009E0001A821B821C821D8210928B0210928C0232
:1009F00010928D0210928E0210928A0212BE28B3BB
:100A000001E010E0C801088002C0880F991F0A9415
:100A1000E2F7822B88BB8AE090E00E94E70088B36F
:100A2000088002C0000F111F0A94E2F70095082306
:100A300008BB89B7816089BF86B390E0098002C096
:100A4000959587950A94E2F780FFF6CF81E083BF02
:100A500086B390E0098002C0959587950A94E2F7E5
:100A600080FF06C080918A02882321F080E003C0C5
:100A700080E001C081E08111EBCF13BE89B78E7F8A
:100A800089BF42B750E05F834E8360918B027091C3
:100A90008C0280918D0290918E026A837B838C837D
:100AA0009D830E946204688779878A879B878E016D
:100AB000045F1F4F22E046E00E946C07DF91CF9158
:100AC0001F910F9108955058BB27AA270E947B05BC
:100AD0000C9496060E94880638F00E948F0620F03B
:100AE00039F49F3F19F426F40C9485060EF4E09532
:100AF000E7FB0C947F06E92F0E94A70658F3BA176C
:100B0000620773078407950720F079F4A6F50C9423
:100B1000C9060EF4E0950B2EBA2FA02D0B01B901DA
:100B200090010C01CA01A0011124FF27591B99F063
:100B3000593F50F4503E68F11A16F040A22F232F6F
:100B4000342F4427585FF3CF469537952795A795BF
:100B5000F0405395C9F77EF41F16BA0B620B730B66
:100B6000840BBAF09150A1F0FF0FBB1F661F771FD7
:100B7000881FC2F70EC0BA0F621F731F841F48F48C
:100B8000879577956795B795F7959E3F08F0B0CF15
:100B90009395880F08F09927EE0F979587950895FC
:100BA0000E94E4050C9496060E948F0658F00E945D
:100BB000880640F029F45F3F29F00C947F0651111C
:100BC0000C94CA060C9485060E94A70668F3992324
:100BD000B1F3552391F3951B550BBB27AA27621739
:100BE0007307840738F09F5F5F4F220F331F441F46
:100BF000AA1FA9F335D00E2E3AF0E0E832D091507A
:100C00005040E695001CCAF72BD0FE2F29D0660F66
:100C1000771F881FBB1F261737074807AB07B0E8A9
:100C200009F0BB0B802DBF01FF2793585F4F3AF0AF
:100C30009E3F510578F00C947F060C94CA065F3FE6
:100C4000E4F3983ED4F3869577956795B795F79535
:100C50009F5FC9F7880F911D9695879597F908951D
:100C6000E1E0660F771F881FBB1F621773078407B9
:100C7000BA0720F0621B730B840BBA0BEE1F88F7C8
:100C8000E0950895E89409C097FB3EF4909580950F
:100C9000709561957F4F8F4F9F4F9923A9F0F92F42
:100CA00096E9BB279395F695879577956795B795C0
:100CB000F111F8CFFAF4BB0F11F460FF1BC06F5FA6
:100CC0007F4F8F4F9F4F16C0882311F096E911C0B8
:100CD000772321F09EE8872F762F05C0662371F0D9
:100CE00096E8862F70E060E02AF09A95660F771FED
:100CF000881FDAF7880F9695879597F9089597F9E1
:100D00009F6780E870E060E008959FEF80EC0895B1
:100D100000240A94161617061806090608950024DA
:100D20000A9412161306140605060895092E039454
:100D3000000C11F4882352F0BB0F40F4BF2B11F4C8
:100D400060FF04C06F5F7F4F8F4F9F4F089557FD27
:100D50009058440F551F59F05F3F71F04795880F29
:100D600097FB991F61F09F3F79F0879508951216C0
:100D700013061406551FF2CF4695F1DF08C016166C
:100D800017061806991FF1CF86957105610508941D
:100D90000895E894BB2766277727CB0197F9089534
:100DA0000E94420708F48FEF08950E94E8060C9411
:100DB00096060E94880638F00E948F0620F0952340
:100DC00011F00C947F060C94850611240C94CA062D
:100DD0000E94A70670F3959FC1F3950F50E0551F31
:100DE000629FF001729FBB27F00DB11D639FAA2780
:100DF000F00DB11DAA1F649F6627B00DA11D661FCF
:100E0000829F2227B00DA11D621F739FB00DA11DEF
:100E1000621F839FA00D611D221F749F3327A00DA9
:100E2000611D231F849F600D211D822F762F6A2F45
:100E300011249F5750409AF0F1F088234AF0EE0FAA
:100E4000FF1FBB1F661F771F881F91505040A9F7D7
:100E50009E3F510580F00C947F060C94CA065F3FBC
:100E6000E4F3983ED4F3869577956795B795F79513
:100E7000E7959F5FC1F7FE2B880F911D969587958B
:100E800097F90895990F0008550FAA0BE0E8FEEFB7
:100E900016161706E807F907C0F012161306E4073E
:100EA000F50798F0621B730B840B950B39F40A2637
:100EB00061F0232B242B252B21F408950A2609F415
:100EC000A140A6958FEF811D811D0895EE0FFF1F94
:100ED0000590F491E02D0994EF920F931F93CF9317
:100EE000DF93E80147FD02C034E001C034E1042E85
:100EF000000C550B57FF03C0519541955109E32E46
:100F0000022F242FAE010E949D09CE01DF91CF91C7
:100F10001F910F91EF900895AEE0B0E0E2E9F7E0A5
:100F20000C948D0C0D891E898F89988D26E02C8359
:100F30001A83098397FF02C080E090E801979E839F
:100F40008D83AE01455E5F4F698D7A8DCE0101962E
:100F50000E94BC074D815E8157FD0AC02F813885F4
:100F6000421753070CF49A01F801E20FF31F1082A5
:100F70002E96E4E00C94A90CABE0B0E0E2ECF7E0D4
:100F80000C947F0C6C017B018A01FC011782168294
:100F9000838181FFCCC1CE0101963C01F601938192
:100FA000F70193FD859193FF81917F01882309F4D7
:100FB000BAC1853239F493FD859193FF81917F0108
:100FC000853229F4B60190E00E94E50BE7CF912C21
:100FD000212C312CFFE1F315D8F08B3279F038F465
:100FE000803279F08332A1F4232D20611DC08D322F
:100FF00061F0803369F4232D216016C0832D826057
:10100000382EE32DE4603E2E2AC0F32DF8601DC07B
:1010100037FC2DC020ED280F2A3040F08E32B9F475
:1010200036FC81C1232D2064322E19C036FE06C045
:101030008AE0989E200D1124922E11C0EAE02E9E87
:10104000200D1124222EF32DF0623F2E08C08C3685
:1010500021F4832D8068382E02C0883641F4F701D0
:1010600093FD859193FF81917F018111B3CF982FDB
:101070009F7D9554933028F40C5F1F4F9FE3998315
:101080000DC0833631F0833771F0833509F059C0D4
:1010900021C0F801808189830E5F1F4F88248394CB
:1010A000912C530113C02801F2E04F0E511CF8019E
:1010B000A080B18036FE03C0692D70E002C06FEFE2
:1010C0007FEFC5010E94DA0B4C018201F32DFF77FF
:1010D0003F2E16C0280122E0420E511CF801A080CC
:1010E000B18036FE03C0692D70E002C06FEF7FEF64
:1010F000C5010E94CF0B4C01F32DF0683F2E8201F9
:1011000033FC1BC0822D90E088169906B0F4B6011E
:1011100080E290E00E94E50B2A94F4CFF50137FCC1
:10112000859137FE81915F01B60190E00E94E50B49
:1011300021102A9421E0821A91088114910471F7F8
:10114000E8C0843611F0893641F5F80137FE07C052
:1011500060817181828193810C5F1F4F08C0608123
:101160007181072E000C880B990B0E5F1F4FF32D1A
:10117000FF763F2E97FF09C09095809570956195F9
:101180007F4F8F4F9F4FF0683F2E2AE030E0A30142
:101190000E94210C882E861845C0853731F4232DF6
:1011A0002F7EB22E2AE030E025C0932D997FB92EF4
:1011B0008F36C1F018F4883579F0B5C0803719F052
:1011C000883721F0B0C0E92FE061BE2EB4FE0DC01B
:1011D000FB2DF460BF2E09C034FE0AC0292F266003
:1011E000B22E06C028E030E005C020E130E002C0A9
:1011F00020E132E0F801B7FE07C060817181828191
:1012000093810C5F1F4F06C06081718180E090E088
:101210000E5F1F4FA3010E94210C882E8618FB2D04
:10122000FF773F2E36FE0DC0232D2E7FA22E891470
:1012300058F434FE0BC032FC09C0832D8E7EA82EDC
:1012400005C0B82CA32C03C0B82C01C0B92CA4FE37
:101250000FC0FE01E80DF11D8081803321F49A2D2D
:10126000997EA92E09C0A2FE06C0B394B39404C00F
:101270008A2D867809F0B394A3FC11C0A0FE06C0A5
:10128000B21488F4280C922C9B180EC0B21460F48F
:10129000B60180E290E00E94E50BB394F7CFB21460
:1012A00018F42B1802C0982C212CA4FE10C0B601F3
:1012B00080E390E00E94E50BA2FE17C0A1FC03C0F2
:1012C00088E790E002C088E590E0B6010CC08A2D66
:1012D000867859F0A1FE02C08BE201C080E2A7FC33
:1012E0008DE2B60190E00E94E50B891438F4B60156
:1012F00080E390E00E94E50B9A94F7CF8A94F30183
:10130000E80DF11D8081B60190E00E94E50B81108F
:10131000F5CF222009F442CEB60180E290E00E948F
:10132000E50B2A94F6CFF6018681978102C08FEFF4
:101330009FEF2B96E2E10C949B0CA9E0B0E0E3EA6E
:10134000F9E00C94850C6A01122FB02E2BE32017C4
:1013500020F0FF24F394F00E02C02CE3F22E0F2DA8
:1013600027E0AE014F5F5F4F0E94F70ABC01498141
:10137000842F8970813031F0E1FC06C0E0FE06C0A8
:1013800090E205C09DE203C09BE201C090E05E2DAB
:10139000507143FF3CC0911102C083E001C084E062
:1013A000811718F4212F281B01C020E051110BC018
:1013B000F601822F30E2882319F031938150FBCF60
:1013C000C20ED11C20E0992329F0D6019C93F6018E
:1013D00031966F01C6010396E2FE0AC03EE4D601D3
:1013E0003C9341E411964C93119712963C9306C09E
:1013F0003EE6F601308341E641833283FC01322F21
:1014000040E2332309F442C041933150FACF42FF06
:1014100044C0911102C083E001C084E0811718F438
:10142000212F281B01C020E051110BC0F601822F93
:1014300030E2882319F031938150FBCFC20ED11CCA
:1014400020E0992329F0D6019C93F60131966F0193
:10145000C6010396E2FE0BC039E4D6013C933EE49C
:1014600011963C93119736E412963C9307C039E6E7
:10147000F60130833EE6318336E63283FC01322FBB
:1014800040E2332319F041933150FBCFFC01E20FCE
:10149000F11D10828EEF9FEFA6C021E030E0911188
:1014A00002C020E030E0161617061CF4FB0131964E
:1014B00002C0E1E0F0E02E0F3F1FBB2021F0EB2D3A
:1014C000F0E0319602C0E0E0F0E02E0F3F1FE12F88
:1014D000F0E02E173F071CF4121B212F01C020E063
:1014E0008E2D887159F4F601822F30E2882319F08D
:1014F00031938150FBCFC20ED11C20E0992329F0FB
:10150000D6019C93F60131966F0151110BC0F60183
:10151000822F90E3882319F091938150FBCFC20E64
:10152000D11C20E00F2D060F9A81342F307144FF1B
:1015300003C0913309F40150101624F4093018F057
:1015400008E001C001E0AB0177FF02C040E050E0DD
:10155000FB01E41BF50BA1E0B0E0AC0FBD1FEA0FEF
:10156000FB1F8EE2A82E4B01801A91080B2D10E074
:101570001195019511094F3FBFEF5B0721F4D6018B
:10158000AC9211966D01641775072CF084169506C0
:1015900014F4818101C080E3415051093196D60194
:1015A00011967D014017510724F0D6018C936701F5
:1015B000E2CF6417750739F4963320F4953319F4A4
:1015C000311101C081E3F6018083F701822F90E29F
:1015D000882319F091938150FBCFF701E20FF11DA1
:1015E000108280E090E02996ECE00C94A10C283069
:1015F00008F027E03327DA01990F311D87FD91604C
:1016000000966105710539F432602E5F3D9330E339
:101610002A95E1F708959F3F30F080387105610504
:1016200009F03C5F3C5F3D93913008F08068911D6C
:10163000DF93CF931F930F93FF92EF92192F987F11
:101640009695E92F96959695E90FFF27E255FF4F5E
:1016500099273327EE24FF24A701E701059008947A
:10166000079428F4360FE71EF81E491F511D660F18
:10167000771F881F991F0694A1F70590079428F4F7
:10168000E70EF81E491F561FC11D770F881F991FAF
:10169000661F0694A1F70590079428F4F80E491FD9
:1016A000561FC71FD11D880F991F661F771F0694ED
:1016B000A1F70590079420F4490F561FC71FD81FA4
:1016C000990F661F771F881F0694A9F784911095BC
:1016D000177041F0D695C79557954795F794E794BD
:1016E0001A95C1F7E4E5F0E06894159015913591ED
:1016F0006591959105907FE27395E118F10A430B8E
:10170000560BC90BD009C0F7E10CF11E431F561F41
:10171000C91FD01D7EF4703311F48A95E6CFE8948A
:10172000015030F0080F0AF40027021708F4202FA8
:101730002395022F7A3328F079E37D932A95E9F7F0
:1017400010C07D932A9589F60694979567953795ED
:1017500017951794E118F10A430B560BC90BD009E2
:1017600098F023957E9173957A3308F070E37C931B
:101770002013B8F77E9170617D9330F0839571E30B
:101780007D9370E32A95E1F71124EF90FF900F917C
:101790001F91CF91DF91992787FD90950895FC01C6
:1017A0000590615070400110D8F7809590958E0F8C
:1017B0009F1F0895FC016150704001900110D8F7FF
:1017C000809590958E0F9F1F08950F931F93CF9331
:1017D000DF93FB01238121FD03C08FEF9FEF2CC01E
:1017E00022FF16C046815781248135814217530755
:1017F00044F4A081B1819D012F5F3F4F318320834D
:101800008C93268137812F5F3F4F3783268314C007
:101810008B01EC01FB010084F185E02D0995892BFA
:10182000E1F6D80116968D919C911797019617961F
:101830009C938E931697CE01DF91CF911F910F91BC
:101840000895FA01AA27283051F1203181F1E89456
:101850006F936E7F6E5F7F4F8F4F9F4FAF4FB1E0A3
:101860003ED0B4E03CD0670F781F891F9A1FA11D9E
:10187000680F791F8A1F911DA11D6A0F711D811D9F
:10188000911DA11D20D009F468943F912AE0269F64
:1018900011243019305D3193DEF6CF010895462FC3
:1018A0004770405D4193B3E00FD0C9F7F6CF462FA4
:1018B0004F70405D4A3318F0495D31FD405241930D
:1018C00002D0A9F7EACFB4E0A695979587957795CA
:1018D0006795BA95C9F700976105710508959B0151
:1018E000AC010A2E06945795479537952795BA95DA
:1018F000C9F7620F731F841F951FA01D08952F92B3
:101900003F924F925F926F927F928F929F92AF928F
:10191000BF92CF92DF92EF92FF920F931F93CF93DC
:10192000DF93CDB7DEB7CA1BDB0B0FB6F894DEBF73
:101930000FBECDBF09942A88398848885F846E8499
:101940007D848C849B84AA84B984C884DF80EE80E3
:10195000FD800C811B81AA81B981CE0FD11D0FB6EC
:10196000F894DEBF0FBECDBFED010895F894FFCF10
:10197000CDCCCC3D8FC2F53DBC74133EE926313E43
:10198000CFF7533EDBF97E3E8716993EC74BB73EF5
:10199000F628DC3E9318043FC9761E3F3F353E3F94
:1019A0001D5A643FC3F5883F1D5AA43F7D3FC53F84
:1019B00008ACEC3F19040E40355E2A40E17A4C40F9
:1019C00042607540643B934008ACB0400000D44096
:1019D0006666FE40D7A31841333337410AD75B41CF
:1019E0000AD78341713D9E4185EBBD4185EBE341C3
:1019F00052B808427B14244248E14442AE476C424C
:101A00008FC28D42B81EAA423333CC420000F54249
:101A10004260E53BBC74133CA69B443C6F12833C84
:101A20003108AC3C4260E53C508D173D39B4483D2F
:101A30006F12833D7B14AE3D4260E53D2B87163E21
:101A4000F0A7463E3789813ED578A93EE3A5DB3E27
:101A5000F2D20D3F0681353F54E3653F3BDF8F3FB8
:101A6000FCA9B13FD9CED73F39B400408D9716407D
:101A70006ABC2C40D34D4240C9765640D7A368403B
:101A8000759378403D0A8340A69B8840E9268D40A7
:101A90009CC49040E3A5934023DB954081959740FB
:101AA00091ED984085EB994021B09A4096439B4038
:101AB000403B25643B25643B25643B25643B257303
:0E1AC0003B25733B25643B25643B23256300D7
:00000001FF
